{
  "contractName": "LuckySeven",
  "abi": [
    {
      "inputs": [
        {
          "internalType": "uint256",
          "name": "b",
          "type": "uint256"
        },
        {
          "internalType": "uint256",
          "name": "n",
          "type": "uint256"
        },
        {
          "internalType": "uint256",
          "name": "mu",
          "type": "uint256"
        },
        {
          "internalType": "uint256",
          "name": "p",
          "type": "uint256"
        },
        {
          "internalType": "uint256",
          "name": "i",
          "type": "uint256"
        },
        {
          "internalType": "uint256",
          "name": "j",
          "type": "uint256"
        }
      ],
      "name": "generator",
      "outputs": [
        {
          "internalType": "uint256",
          "name": "O",
          "type": "uint256"
        }
      ],
      "stateMutability": "pure",
      "type": "function"
    }
  ],
  "bytecode": "0x608060405234801561001057600080fd5b5060d88061001f6000396000f3fe6080604052348015600f57600080fd5b506004361060285760003560e01c80636f7ce92e14602d575b600080fd5b6065600480360360c0811015604157600080fd5b5080359060208101359060408101359060608101359060808101359060a001356077565b60408051918252519081900360200190f35b600a82810a95810a9490940392840a95909502919091048381069490910190910a900691909103049056fea2646970667358221220b995c572a14097aa96528aa34574cc24520231b43a3eff9a5bc478dba90b505664736f6c634300060c0033",
  "immutableReferences": {},
  "source": "//SPDX-License-Identifier: UNLICENSED\npragma solidity ^0.6.0;\n\n/**\n * @title LuckySeven\n * @dev LuckySeven is a contract to generate random number with low cost\n */\ncontract LuckySeven {\n    /**\n     * @notice Generates a pseudo random number on chain with super low gas cost (850 gas)\n     * @dev Generates a pseudo random number on chain with super low gas cost (850 gas)\n     * @param b 1. numerator of the PRNG\n     * @param n 2. power of the 10 on the divisor of the PRNG\n     * @param mu 3. value for the oscilator to introduce entropy\n     * @param p 4. expands the number as 10^p\n     * @param i 5. chooses the starting position to start cutting the number\n     * @param j 6. to choose the length of the random number (digits from i position to left)\n     */\n\n    function generator(\n        uint256 b,\n        uint256 n,\n        uint256 mu,\n        uint256 p,\n        uint256 i,\n        uint256 j\n    ) public pure returns (uint256 O) {\n        assembly {\n            let L := exp(10, p) // 10^p\n            let U := mul(L, b) // 10^p * b\n            let C := exp(10, n) // 10^n\n            let K := sub(C, mu) // 10^n - mu\n            let Y := div(U, K) // (10^p * b)/(10^n - mu)\n            let S := exp(10, add(i, j)) // 10^(i+j)\n            let E := exp(10, i) // 10^i\n            let V := mod(Y, S) // Y % 10^(i+j)\n            let N := mod(Y, E) // Y % 10^i\n            let I := sub(V, N) // (Y % 10^(i+j)) / (Y % 10^i)\n            O := div(I, E)\n        }\n    }\n}\n",
  "sourcePath": "/Users/matiasbn/Desktop/luckyseven-protocol-contracts/contracts/LuckySeven.sol",
  "compiler": {
    "name": "solc",
    "version": "0.6.12+commit.27d51765.Emscripten.clang"
  },
  "schemaVersion": "3.2.5",
  "updatedAt": "2021-01-29T23:36:16.408Z",
  "devdoc": {
    "details": "LuckySeven is a contract to generate random number with low cost",
    "kind": "dev",
    "methods": {
      "generator(uint256,uint256,uint256,uint256,uint256,uint256)": {
        "details": "Generates a pseudo random number on chain with super low gas cost (850 gas)",
        "params": {
          "b": "1. numerator of the PRNG",
          "i": "5. chooses the starting position to start cutting the number",
          "j": "6. to choose the length of the random number (digits from i position to left)",
          "mu": "3. value for the oscilator to introduce entropy",
          "n": "2. power of the 10 on the divisor of the PRNG",
          "p": "4. expands the number as 10^p"
        }
      }
    },
    "title": "LuckySeven",
    "version": 1
  },
  "userdoc": {
    "kind": "user",
    "methods": {
      "generator(uint256,uint256,uint256,uint256,uint256,uint256)": {
        "notice": "Generates a pseudo random number on chain with super low gas cost (850 gas)"
      }
    },
    "version": 1
  }
}