{
  "contractName": "LuckySeven",
  "abi": [
    {
      "inputs": [
        {
          "internalType": "address",
          "name": "_chainlinkOracle",
          "type": "address"
        },
        {
          "internalType": "address",
          "name": "_chainlinkToken",
          "type": "address"
        },
        {
          "internalType": "bytes32",
          "name": "_chainlinkJobId",
          "type": "bytes32"
        }
      ],
      "stateMutability": "nonpayable",
      "type": "constructor"
    },
    {
      "anonymous": false,
      "inputs": [
        {
          "indexed": true,
          "internalType": "bytes32",
          "name": "id",
          "type": "bytes32"
        }
      ],
      "name": "ChainlinkCancelled",
      "type": "event"
    },
    {
      "anonymous": false,
      "inputs": [
        {
          "indexed": true,
          "internalType": "bytes32",
          "name": "id",
          "type": "bytes32"
        }
      ],
      "name": "ChainlinkFulfilled",
      "type": "event"
    },
    {
      "anonymous": false,
      "inputs": [
        {
          "indexed": true,
          "internalType": "bytes32",
          "name": "id",
          "type": "bytes32"
        }
      ],
      "name": "ChainlinkRequested",
      "type": "event"
    },
    {
      "anonymous": false,
      "inputs": [
        {
          "indexed": false,
          "internalType": "uint256",
          "name": "i",
          "type": "uint256"
        },
        {
          "indexed": false,
          "internalType": "uint256",
          "name": "luckySevenNumber",
          "type": "uint256"
        },
        {
          "indexed": true,
          "internalType": "address",
          "name": "owner",
          "type": "address"
        }
      ],
      "name": "IParameterReceived",
      "type": "event"
    },
    {
      "inputs": [],
      "name": "chainlinkJobId",
      "outputs": [
        {
          "internalType": "bytes32",
          "name": "",
          "type": "bytes32"
        }
      ],
      "stateMutability": "view",
      "type": "function"
    },
    {
      "inputs": [],
      "name": "chainlinkOracle",
      "outputs": [
        {
          "internalType": "address",
          "name": "",
          "type": "address"
        }
      ],
      "stateMutability": "view",
      "type": "function"
    },
    {
      "inputs": [],
      "name": "fee",
      "outputs": [
        {
          "internalType": "uint256",
          "name": "",
          "type": "uint256"
        }
      ],
      "stateMutability": "view",
      "type": "function"
    },
    {
      "inputs": [
        {
          "internalType": "address",
          "name": "",
          "type": "address"
        },
        {
          "internalType": "uint256",
          "name": "",
          "type": "uint256"
        }
      ],
      "name": "luckySevenNumbersRegister",
      "outputs": [
        {
          "internalType": "uint256",
          "name": "b",
          "type": "uint256"
        },
        {
          "internalType": "uint256",
          "name": "n",
          "type": "uint256"
        },
        {
          "internalType": "uint256",
          "name": "mu",
          "type": "uint256"
        },
        {
          "internalType": "uint256",
          "name": "p",
          "type": "uint256"
        },
        {
          "internalType": "uint256",
          "name": "i",
          "type": "uint256"
        },
        {
          "internalType": "uint256",
          "name": "j",
          "type": "uint256"
        },
        {
          "internalType": "uint256",
          "name": "number",
          "type": "uint256"
        },
        {
          "internalType": "bool",
          "name": "fulfilled",
          "type": "bool"
        },
        {
          "internalType": "address",
          "name": "owner",
          "type": "address"
        }
      ],
      "stateMutability": "view",
      "type": "function"
    },
    {
      "inputs": [
        {
          "internalType": "uint256",
          "name": "b",
          "type": "uint256"
        },
        {
          "internalType": "uint256",
          "name": "n",
          "type": "uint256"
        },
        {
          "internalType": "uint256",
          "name": "mu",
          "type": "uint256"
        },
        {
          "internalType": "uint256",
          "name": "p",
          "type": "uint256"
        },
        {
          "internalType": "uint256",
          "name": "i",
          "type": "uint256"
        },
        {
          "internalType": "uint256",
          "name": "j",
          "type": "uint256"
        }
      ],
      "name": "prng",
      "outputs": [
        {
          "internalType": "uint256",
          "name": "O",
          "type": "uint256"
        }
      ],
      "stateMutability": "pure",
      "type": "function"
    },
    {
      "inputs": [
        {
          "internalType": "bytes32",
          "name": "",
          "type": "bytes32"
        }
      ],
      "name": "requestToLuckySevenNumber",
      "outputs": [
        {
          "internalType": "uint256",
          "name": "b",
          "type": "uint256"
        },
        {
          "internalType": "uint256",
          "name": "n",
          "type": "uint256"
        },
        {
          "internalType": "uint256",
          "name": "mu",
          "type": "uint256"
        },
        {
          "internalType": "uint256",
          "name": "p",
          "type": "uint256"
        },
        {
          "internalType": "uint256",
          "name": "i",
          "type": "uint256"
        },
        {
          "internalType": "uint256",
          "name": "j",
          "type": "uint256"
        },
        {
          "internalType": "uint256",
          "name": "number",
          "type": "uint256"
        },
        {
          "internalType": "bool",
          "name": "fulfilled",
          "type": "bool"
        },
        {
          "internalType": "address",
          "name": "owner",
          "type": "address"
        }
      ],
      "stateMutability": "view",
      "type": "function"
    },
    {
      "inputs": [
        {
          "internalType": "uint256",
          "name": "",
          "type": "uint256"
        }
      ],
      "name": "requests",
      "outputs": [
        {
          "internalType": "bytes32",
          "name": "",
          "type": "bytes32"
        }
      ],
      "stateMutability": "view",
      "type": "function"
    },
    {
      "inputs": [
        {
          "internalType": "uint256",
          "name": "_b",
          "type": "uint256"
        },
        {
          "internalType": "uint256",
          "name": "_n",
          "type": "uint256"
        },
        {
          "internalType": "uint256",
          "name": "_mu",
          "type": "uint256"
        },
        {
          "internalType": "uint256",
          "name": "_p",
          "type": "uint256"
        },
        {
          "internalType": "uint256",
          "name": "_j",
          "type": "uint256"
        }
      ],
      "name": "requestInsecureIParameter",
      "outputs": [],
      "stateMutability": "nonpayable",
      "type": "function"
    },
    {
      "inputs": [
        {
          "internalType": "bytes32",
          "name": "_requestId",
          "type": "bytes32"
        },
        {
          "internalType": "bytes32",
          "name": "_chainlinkResponse",
          "type": "bytes32"
        }
      ],
      "name": "fulFillInsecureIParameter",
      "outputs": [],
      "stateMutability": "nonpayable",
      "type": "function"
    }
  ],
  "bytecode": "0x6080604052600160045567016345785d8a0000600b5534801561002157600080fd5b506040516110713803806110718339818101604052606081101561004457600080fd5b508051602082015160409092015190919061005e82610087565b600a5550600980546001600160a01b0319166001600160a01b03929092169190911790556100a9565b600280546001600160a01b0319166001600160a01b0392909216919091179055565b610fb9806100b86000396000f3fe608060405234801561001057600080fd5b50600436106100835760003560e01c80634aba6679146100885780634c538bb6146101065780635175873314610153578063523129ae1461015b578063527bf87d1461017857806381d12c58146101af578063ddca3f43146101cc578063ef06e72c146101d4578063f6705b68146101f8575b600080fd5b6100b46004803603604081101561009e57600080fd5b506001600160a01b03813516906020013561021b565b60408051998a5260208a0198909852888801969096526060880194909452608087019290925260a086015260c0850152151560e08401526001600160a01b031661010083015251908190036101200190f35b610141600480360360c081101561011c57600080fd5b5080359060208101359060408101359060608101359060808101359060a0013561028d565b60408051918252519081900360200190f35b6101416102b8565b6100b46004803603602081101561017157600080fd5b50356102be565b6101ad600480360360a081101561018e57600080fd5b5080359060208101359060408101359060608101359060800135610316565b005b610141600480360360208110156101c557600080fd5b50356104eb565b610141610509565b6101dc61050f565b604080516001600160a01b039092168252519081900360200190f35b6101ad6004803603604081101561020e57600080fd5b508035906020013561051e565b6008602052816000526040600020818154811061023457fe5b6000918252602090912060089091020180546001820154600283015460038401546004850154600586015460068701546007909701549598509396509194909391929160ff81169061010090046001600160a01b031689565b600a82810a95810a9490940392840a95909502919091048381069490910190910a9006919091030490565b600a5481565b60076020819052600091825260409091208054600182015460028301546003840154600485015460058601546006870154969097015494969395929491939092909160ff81169061010090046001600160a01b031689565b61031e610e92565b600a546103339030631ece0b6d60e31b61076f565b905061039f604051806040016040528060088152602001676a6f625f7479706560c01b8152506040518060400160405280601a81526020017f726571756573745f696e7365637572655f706172616d65746572000000000000815250836107949092919063ffffffff16565b600954600b546000916103bf916001600160a01b039091169084906107b7565b905060068190806001815401808255809150506001900390600052602060002001600090919091909150556040518061012001604052808881526020018781526020018681526020018581526020016000815260200184815260200160008152602001600015158152602001336001600160a01b031681525060076000838152602001908152602001600020600082015181600001556020820151816001015560408201518160020155606082015181600301556080820151816004015560a0820151816005015560c0820151816006015560e08201518160070160006101000a81548160ff0219169083151502179055506101008201518160070160016101000a8154816001600160a01b0302191690836001600160a01b0316021790555090505050505050505050565b600681815481106104f857fe5b600091825260209091200154905081565b600b5481565b6009546001600160a01b031681565b60008281526005602052604090205482906001600160a01b031633146105755760405162461bcd60e51b8152600401808060200182810382526028815260200180610f5c6028913960400191505060405180910390fd5b60008181526005602052604080822080546001600160a01b03191690555182917f7cc135e0cebb02c3480ae5d74d377283180a2601f8f644edf7987b009316c63a91a260006105c383610985565b90506105cd610ec7565b50600084815260076020818152604080842081516101208101835281548082526001830154948201859052600283015493820184905260038301546060830181905260048401546080840152600584015460a08401819052600685015460c0850152939096015460ff8116151560e08401526001600160a01b036101009182900416908301529095946106659491939192889061028d565b90508161010001516001600160a01b03167fca3657ded4a4b7403d8c8d8a731f6aa558da83498b77e66f6e9f17018f32a74f8483604051808381526020018281526020019250505060405180910390a260c0820190815260808201928352600160e0830181815261010080850180516001600160a01b0390811660009081526008602081815260408084208054808b018255908552938290208b519490930290920192835589015196820196909655948701516002860155606087015160038601559651600485015560a0909501516005840155925160068301555160079091018054935160ff1990941691151591909117610100600160a81b0319169290931602179055505050565b610777610e92565b61077f610e92565b61078b81868686610a23565b95945050505050565b60808301516107a39083610a60565b60808301516107b29082610a60565b505050565b6004546040805130606090811b60208084019190915260348084018690528451808503909101815260549093018452825192810192909220908601939093526000838152600590915281812080546001600160a01b0319166001600160a01b038816179055905182917fb5e6e01e79f91267dc17b4e6314d5d4d03593d2ceee0fbb452b750bd70ea5af991a26002546001600160a01b0316634000aea0858461085f87610a77565b6040518463ffffffff1660e01b815260040180846001600160a01b0316815260200183815260200180602001828103825283818151815260200191508051906020019080838360005b838110156108c05781810151838201526020016108a8565b50505050905090810190601f1680156108ed5780820380516001836020036101000a031916815260200191505b50945050505050602060405180830381600087803b15801561090e57600080fd5b505af1158015610922573d6000803e3d6000fd5b505050506040513d602081101561093857600080fd5b50516109755760405162461bcd60e51b8152600401808060200182810382526023815260200180610f396023913960400191505060405180910390fd5b6004805460010190559392505050565b60408051602080820184905282518083039091018152908201909152600090815b8151811015610a1c5760308282815181106109bd57fe5b016020015160f81c108015906109e7575060398282815181106109dc57fe5b016020015160f81c11155b15610a145760308282815181106109fa57fe5b602001015160f81c60f81b60f81c0360ff1683600a020192505b6001016109a6565b5050919050565b610a2b610e92565b610a3b8560800151610100610b9b565b50509183526001600160a01b031660208301526001600160e01b031916604082015290565b610a6d8260038351610bdb565b6107b28282610cb5565b6060634042994660e01b6000808460000151856020015186604001518760600151600189608001516000015160405160240180896001600160a01b03168152602001888152602001878152602001866001600160a01b03168152602001856001600160e01b031916815260200184815260200183815260200180602001828103825283818151815260200191508051906020019080838360005b83811015610b29578181015183820152602001610b11565b50505050905090810190601f168015610b565780820380516001836020036101000a031916815260200191505b5060408051601f198184030181529190526020810180516001600160e01b03166001600160e01b0319909d169c909c17909b5250989950505050505050505050919050565b610ba3610f1e565b6020820615610bb85760208206602003820191505b506020808301829052604080518085526000815283019091019052815b92915050565b60178111610bfc57610bf68360e0600585901b168317610cd6565b506107b2565b60ff8111610c2657610c19836018611fe0600586901b1617610cd6565b50610bf683826001610cee565b61ffff8111610c5157610c44836019611fe0600586901b1617610cd6565b50610bf683826002610cee565b63ffffffff8111610c7e57610c7183601a611fe0600586901b1617610cd6565b50610bf683826004610cee565b67ffffffffffffffff81116107b257610ca283601b611fe0600586901b1617610cd6565b50610caf83826008610cee565b50505050565b610cbd610f1e565b610ccf83846000015151848551610d0f565b9392505050565b610cde610f1e565b610ccf8384600001515184610dbb565b610cf6610f1e565b610d07848560000151518585610e06565b949350505050565b610d17610f1e565b8251821115610d2557600080fd5b84602001518285011115610d4f57610d4f85610d478760200151878601610e64565b600202610e7b565b600080865180518760208301019350808887011115610d6e5787860182525b505050602084015b60208410610d955780518252601f199093019260209182019101610d76565b51815160001960208690036101000a019081169019919091161790525083949350505050565b610dc3610f1e565b83602001518310610ddf57610ddf848560200151600202610e7b565b835180516020858301018481535080851415610dfc576001810182525b5093949350505050565b610e0e610f1e565b84602001518483011115610e2b57610e2b85858401600202610e7b565b60006001836101000a039050855183868201018583198251161781525080518487011115610e595783860181525b509495945050505050565b600081831115610e75575081610bd5565b50919050565b8151610e878383610b9b565b50610caf8382610cb5565b6040805160a081018252600080825260208201819052918101829052606081019190915260808101610ec2610f1e565b905290565b6040518061012001604052806000815260200160008152602001600081526020016000815260200160008152602001600081526020016000815260200160001515815260200160006001600160a01b031681525090565b60405180604001604052806060815260200160008152509056fe756e61626c6520746f207472616e73666572416e6443616c6c20746f206f7261636c65536f75726365206d75737420626520746865206f7261636c65206f66207468652072657175657374a26469706673582212200b74ceaca88811c16c571c7a039c3c87651e17ed7c5e82dd5220eec448e61c2264736f6c634300060c0033",
  "immutableReferences": {},
  "source": "//SPDX-License-Identifier: UNLICENSED\npragma solidity ^0.6.0;\n\nimport \"@chainlink/contracts/v0.6/ChainlinkClient.sol\";\nimport \"./LuckySevenPRNG.sol\";\nimport \"./ParseUtils.sol\";\n\n/**\n * @title LuckySeven\n * @dev LuckySeven is a contract to generate random number with low cost\n */\ncontract LuckySeven is ChainlinkClient, LuckySevenPRNG, ParseUtils {\n    struct LuckySevenNumber {\n        uint256 b;\n        uint256 n;\n        uint256 mu;\n        uint256 p;\n        uint256 i;\n        uint256 j;\n        uint256 number;\n        bool fulfilled;\n        address owner;\n    }\n\n    bytes32[] public requests;\n    mapping(bytes32 => LuckySevenNumber) public requestToLuckySevenNumber;\n    mapping(address => LuckySevenNumber[]) public luckySevenNumbersRegister;\n\n    // @dev Chainlink oracle address\n    address public chainlinkOracle;\n    // @dev chainlink jobId\n    bytes32 public chainlinkJobId;\n    // @dev fee for Chainlink querys. Currently 0.1 LINK\n    uint256 public fee = 0.1 * 10**18;\n\n    /**\n     * @dev event triggered when a I parameter is received from Chainlink for the PRNG\n     * @param i 1.value received from Chainlink\n     * @param luckySevenNumber 2. LuckySevenNumber, calculated using i and the PRNG\n     * @param owner 3. owner of the LuckySevenNumber\n     */\n    event IParameterReceived(\n        uint256 i,\n        uint256 luckySevenNumber,\n        address indexed owner\n    );\n\n    /**\n     * @dev parameterize the variables according to network\n     * @notice sets the Chainlink parameters (oracle address, token address, jobId) and sets the SLARegistry to 0x0 address\n     * @param _chainlinkOracle the address of the oracle to create requests to\n     * @param _chainlinkToken the address of LINK token contract\n     * @param _chainlinkJobId the job id for the HTTPGet job\n     */\n    constructor(\n        address _chainlinkOracle,\n        address _chainlinkToken,\n        bytes32 _chainlinkJobId\n    ) public {\n        setChainlinkToken(_chainlinkToken);\n        chainlinkJobId = _chainlinkJobId;\n        chainlinkOracle = _chainlinkOracle;\n    }\n\n    /**\n     * @dev Request a random number without using testimonies\n     * @param _b 1. b parameter\n     * @param _n 2. n parameter\n     * @param _mu 3. mu parameter for the generator\n     * @param _p 4. power of the 10 on the base\n     * @param _j 5. length of the number\n     */\n\n    function requestInsecureIParameter(\n        uint256 _b,\n        uint256 _n,\n        uint256 _mu,\n        uint256 _p,\n        uint256 _j\n    ) public {\n        Chainlink.Request memory request =\n            buildChainlinkRequest(\n                chainlinkJobId,\n                address(this),\n                this.fulFillInsecureIParameter.selector\n            );\n        request.add(\"job_type\", \"request_insecure_parameter\");\n        bytes32 requestId =\n            sendChainlinkRequestTo(chainlinkOracle, request, fee);\n        requests.push(requestId);\n        requestToLuckySevenNumber[requestId] = LuckySevenNumber(\n            _b,\n            _n,\n            _mu,\n            _p,\n            0,\n            _j,\n            0,\n            false,\n            msg.sender\n        );\n    }\n\n    /**\n     * @dev callback function for the Chainlink SLI request which stores\n     * the SLI in the SLA contract\n     * @param _requestId the ID of the ChainLink request\n     * @param _chainlinkResponse response uint256 from Chainlink Node\n     */\n    function fulFillInsecureIParameter(\n        bytes32 _requestId,\n        bytes32 _chainlinkResponse\n    ) public recordChainlinkFulfillment(_requestId) {\n        uint256 i = _bytes32ToUint(_chainlinkResponse);\n        LuckySevenNumber memory luckySevenNumber =\n            requestToLuckySevenNumber[_requestId];\n        uint256 number =\n            prng(\n                luckySevenNumber.b,\n                luckySevenNumber.n,\n                luckySevenNumber.mu,\n                luckySevenNumber.p,\n                i,\n                luckySevenNumber.j\n            );\n        emit IParameterReceived(i, number, luckySevenNumber.owner);\n        luckySevenNumber.number = number;\n        luckySevenNumber.i = i;\n        luckySevenNumber.fulfilled = true;\n        luckySevenNumbersRegister[luckySevenNumber.owner].push(\n            luckySevenNumber\n        );\n    }\n}\n",
  "sourcePath": "/Users/matiasbn/Desktop/luckyseven/luckyseven-protocol-contracts/contracts/LuckySeven.sol",
  "compiler": {
    "name": "solc",
    "version": "0.6.12+commit.27d51765.Emscripten.clang"
  },
  "schemaVersion": "3.2.5",
  "updatedAt": "2021-01-31T18:14:56.564Z",
  "devdoc": {
    "details": "LuckySeven is a contract to generate random number with low cost",
    "events": {
      "IParameterReceived(uint256,uint256,address)": {
        "details": "event triggered when a I parameter is received from Chainlink for the PRNG",
        "params": {
          "i": "1.value received from Chainlink",
          "luckySevenNumber": "2. LuckySevenNumber, calculated using i and the PRNG",
          "owner": "3. owner of the LuckySevenNumber"
        }
      }
    },
    "kind": "dev",
    "methods": {
      "constructor": {
        "details": "parameterize the variables according to network",
        "params": {
          "_chainlinkJobId": "the job id for the HTTPGet job",
          "_chainlinkOracle": "the address of the oracle to create requests to",
          "_chainlinkToken": "the address of LINK token contract"
        }
      },
      "fulFillInsecureIParameter(bytes32,bytes32)": {
        "details": "callback function for the Chainlink SLI request which stores the SLI in the SLA contract",
        "params": {
          "_chainlinkResponse": "response uint256 from Chainlink Node",
          "_requestId": "the ID of the ChainLink request"
        }
      },
      "prng(uint256,uint256,uint256,uint256,uint256,uint256)": {
        "details": "Generates a pseudo random number on chain with super low gas cost (850 gas)",
        "params": {
          "b": "1. numerator of the PRNG",
          "i": "5. chooses the starting position to start cutting the number",
          "j": "6. to choose the length of the random number (digits from i position to left)",
          "mu": "3. value for the oscillator to introduce entropy",
          "n": "2. power of the 10 on the divisor of the PRNG",
          "p": "4. expands the number as 10^p"
        }
      },
      "requestInsecureIParameter(uint256,uint256,uint256,uint256,uint256)": {
        "details": "Request a random number without using testimonies",
        "params": {
          "_b": "1. b parameter",
          "_j": "5. length of the number",
          "_mu": "3. mu parameter for the generator",
          "_n": "2. n parameter",
          "_p": "4. power of the 10 on the base"
        }
      }
    },
    "title": "LuckySeven",
    "version": 1
  },
  "userdoc": {
    "kind": "user",
    "methods": {
      "constructor": "sets the Chainlink parameters (oracle address, token address, jobId) and sets the SLARegistry to 0x0 address"
    },
    "version": 1
  }
}